{
  "_format": "hh-sol-artifact-1",
  "contractName": "NotePortal",
  "sourceName": "contracts/NotePortal.sol",
  "abi": [
    {
      "inputs": [],
      "stateMutability": "payable",
      "type": "constructor"
    },
    {
      "anonymous": false,
      "inputs": [
        {
          "indexed": true,
          "internalType": "address",
          "name": "from",
          "type": "address"
        },
        {
          "indexed": false,
          "internalType": "uint256",
          "name": "timestamp",
          "type": "uint256"
        },
        {
          "indexed": false,
          "internalType": "string",
          "name": "message",
          "type": "string"
        }
      ],
      "name": "NewNote",
      "type": "event"
    },
    {
      "inputs": [],
      "name": "getAllNotes",
      "outputs": [
        {
          "components": [
            {
              "internalType": "address",
              "name": "player",
              "type": "address"
            },
            {
              "internalType": "string",
              "name": "note",
              "type": "string"
            },
            {
              "internalType": "uint256",
              "name": "timestamp",
              "type": "uint256"
            }
          ],
          "internalType": "struct NotePortal.Note[]",
          "name": "",
          "type": "tuple[]"
        }
      ],
      "stateMutability": "view",
      "type": "function"
    },
    {
      "inputs": [],
      "name": "getTotalNotes",
      "outputs": [
        {
          "internalType": "uint256",
          "name": "",
          "type": "uint256"
        }
      ],
      "stateMutability": "view",
      "type": "function"
    },
    {
      "inputs": [
        {
          "internalType": "address",
          "name": "",
          "type": "address"
        }
      ],
      "name": "lastNotePlayedAt",
      "outputs": [
        {
          "internalType": "uint256",
          "name": "",
          "type": "uint256"
        }
      ],
      "stateMutability": "view",
      "type": "function"
    },
    {
      "inputs": [
        {
          "internalType": "string",
          "name": "_message",
          "type": "string"
        }
      ],
      "name": "playNote",
      "outputs": [],
      "stateMutability": "nonpayable",
      "type": "function"
    }
  ],
  "bytecode": "0x60806040526200004f6040518060400160405280601981526020017f57652068617665206265656e20636f6e737472756374656421000000000000008152506200007760201b620006311760201c565b606444426200005f9190620001c4565b6200006b919062000261565b60008190555062000308565b62000117816040516024016200008e919062000184565b6040516020818303038152906040527f41304fac000000000000000000000000000000000000000000000000000000007bffffffffffffffffffffffffffffffffffffffffffffffffffffffff19166020820180517bffffffffffffffffffffffffffffffffffffffffffffffffffffffff83818316178352505050506200011a60201b60201c565b50565b60008151905060006a636f6e736f6c652e6c6f679050602083016000808483855afa5050505050565b60006200015082620001a8565b6200015c8185620001b3565b93506200016e8185602086016200022b565b6200017981620002f7565b840191505092915050565b60006020820190508181036000830152620001a0818462000143565b905092915050565b600081519050919050565b600082825260208201905092915050565b6000620001d18262000221565b9150620001de8362000221565b9250827fffffffffffffffffffffffffffffffffffffffffffffffffffffffffffffffff0382111562000216576200021562000299565b5b828201905092915050565b6000819050919050565b60005b838110156200024b5780820151818401526020810190506200022e565b838111156200025b576000848401525b50505050565b60006200026e8262000221565b91506200027b8362000221565b9250826200028e576200028d620002c8565b5b828206905092915050565b7f4e487b7100000000000000000000000000000000000000000000000000000000600052601160045260246000fd5b7f4e487b7100000000000000000000000000000000000000000000000000000000600052601260045260246000fd5b6000601f19601f8301169050919050565b6110e980620003186000396000f3fe608060405234801561001057600080fd5b506004361061004c5760003560e01c8063128e80bf1461005157806323c2ea4814610081578063969a52d21461009f578063de8f430c146100bb575b600080fd5b61006b6004803603810190610066919061094b565b6100d9565b6040516100789190610d7b565b60405180910390f35b6100896100f1565b6040516100969190610d7b565b60405180910390f35b6100b960048036038101906100b49190610974565b6100fe565b005b6100c36104e0565b6040516100d09190610c77565b60405180910390f35b60026020528060005260406000206000915090505481565b6000600180549050905090565b42610384600260003373ffffffffffffffffffffffffffffffffffffffff1673ffffffffffffffffffffffffffffffffffffffff1681526020019081526020016000205461014c9190610e98565b1061018c576040517f08c379a000000000000000000000000000000000000000000000000000000000815260040161018390610d5b565b60405180910390fd5b42600260003373ffffffffffffffffffffffffffffffffffffffff1673ffffffffffffffffffffffffffffffffffffffff1681526020019081526020016000208190555061020f6040518060400160405280600e81526020017f25732068617320706c6179656421000000000000000000000000000000000000815250336106ca565b600160405180606001604052803373ffffffffffffffffffffffffffffffffffffffff16815260200183815260200142815250908060018154018082558091505060019003906000526020600020906003020160009091909190915060008201518160000160006101000a81548173ffffffffffffffffffffffffffffffffffffffff021916908373ffffffffffffffffffffffffffffffffffffffff16021790555060208201518160010190805190602001906102ce92919061082b565b50604082015181600201555050606460005442446102ec9190610e98565b6102f69190610e98565b6103009190610f9e565b6000819055506103476040518060400160405280601681526020017f52616e646f6d20232067656e6572617465643a20256400000000000000000000815250600054610766565b60326000541161048d576103906040518060400160405280600781526020017f257320776f6e2100000000000000000000000000000000000000000000000000815250336106ca565b6000655af3107a40009050478111156103de576040517f08c379a00000000000000000000000000000000000000000000000000000000081526004016103d590610d1b565b60405180910390fd5b60003373ffffffffffffffffffffffffffffffffffffffff168260405161040490610c62565b60006040518083038185875af1925050503d8060008114610441576040519150601f19603f3d011682016040523d82523d6000602084013e610446565b606091505b505090508061048a576040517f08c379a000000000000000000000000000000000000000000000000000000000815260040161048190610d3b565b60405180910390fd5b50505b3373ffffffffffffffffffffffffffffffffffffffff167f55a5e93dd1185895fca71e29877bc374f5ec5d2c054df92d4192775ae8e6dc7c42836040516104d5929190610d96565b60405180910390a250565b60606001805480602002602001604051908101604052809291908181526020016000905b8282101561062857838290600052602060002090600302016040518060600160405290816000820160009054906101000a900473ffffffffffffffffffffffffffffffffffffffff1673ffffffffffffffffffffffffffffffffffffffff1673ffffffffffffffffffffffffffffffffffffffff16815260200160018201805461058d90610f6c565b80601f01602080910402602001604051908101604052809291908181526020018280546105b990610f6c565b80156106065780601f106105db57610100808354040283529160200191610606565b820191906000526020600020905b8154815290600101906020018083116105e957829003601f168201915b5050505050815260200160028201548152505081526020019060010190610504565b50505050905090565b6106c7816040516024016106459190610c99565b6040516020818303038152906040527f41304fac000000000000000000000000000000000000000000000000000000007bffffffffffffffffffffffffffffffffffffffffffffffffffffffff19166020820180517bffffffffffffffffffffffffffffffffffffffffffffffffffffffff8381831617835250505050610802565b50565b61076282826040516024016106e0929190610cbb565b6040516020818303038152906040527f319af333000000000000000000000000000000000000000000000000000000007bffffffffffffffffffffffffffffffffffffffffffffffffffffffff19166020820180517bffffffffffffffffffffffffffffffffffffffffffffffffffffffff8381831617835250505050610802565b5050565b6107fe828260405160240161077c929190610ceb565b6040516020818303038152906040527f9710a9d0000000000000000000000000000000000000000000000000000000007bffffffffffffffffffffffffffffffffffffffffffffffffffffffff19166020820180517bffffffffffffffffffffffffffffffffffffffffffffffffffffffff8381831617835250505050610802565b5050565b60008151905060006a636f6e736f6c652e6c6f679050602083016000808483855afa5050505050565b82805461083790610f6c565b90600052602060002090601f01602090048101928261085957600085556108a0565b82601f1061087257805160ff19168380011785556108a0565b828001600101855582156108a0579182015b8281111561089f578251825591602001919060010190610884565b5b5090506108ad91906108b1565b5090565b5b808211156108ca5760008160009055506001016108b2565b5090565b60006108e16108dc84610df7565b610dc6565b9050828152602081018484840111156108f957600080fd5b610904848285610f2a565b509392505050565b60008135905061091b8161109c565b92915050565b600082601f83011261093257600080fd5b81356109428482602086016108ce565b91505092915050565b60006020828403121561095d57600080fd5b600061096b8482850161090c565b91505092915050565b60006020828403121561098657600080fd5b600082013567ffffffffffffffff8111156109a057600080fd5b6109ac84828501610921565b91505092915050565b60006109c18383610bf4565b905092915050565b6109d281610eee565b82525050565b6109e181610eee565b82525050565b60006109f282610e37565b6109fc8185610e5a565b935083602082028501610a0e85610e27565b8060005b85811015610a4a5784840389528151610a2b85826109b5565b9450610a3683610e4d565b925060208a01995050600181019050610a12565b50829750879550505050505092915050565b6000610a6782610e42565b610a718185610e76565b9350610a81818560208601610f39565b610a8a8161108b565b840191505092915050565b6000610aa082610e42565b610aaa8185610e87565b9350610aba818560208601610f39565b610ac38161108b565b840191505092915050565b6000610adb603483610e87565b91507f547279696e6720746f207769746864726177206d6f7265206d6f6e657920746860008301527f616e2074686520636f6e7472616374206861732e0000000000000000000000006020830152604082019050919050565b6000610b41602783610e87565b91507f4661696c656420746f207769746864726177206d6f6e65792066726f6d20636f60008301527f6e74726163742e000000000000000000000000000000000000000000000000006020830152604082019050919050565b6000610ba7600083610e6b565b9150600082019050919050565b6000610bc1600883610e87565b91507f576169742031356d0000000000000000000000000000000000000000000000006000830152602082019050919050565b6000606083016000830151610c0c60008601826109c9565b5060208301518482036020860152610c248282610a5c565b9150506040830151610c396040860182610c44565b508091505092915050565b610c4d81610f20565b82525050565b610c5c81610f20565b82525050565b6000610c6d82610b9a565b9150819050919050565b60006020820190508181036000830152610c9181846109e7565b905092915050565b60006020820190508181036000830152610cb38184610a95565b905092915050565b60006040820190508181036000830152610cd58185610a95565b9050610ce460208301846109d8565b9392505050565b60006040820190508181036000830152610d058185610a95565b9050610d146020830184610c53565b9392505050565b60006020820190508181036000830152610d3481610ace565b9050919050565b60006020820190508181036000830152610d5481610b34565b9050919050565b60006020820190508181036000830152610d7481610bb4565b9050919050565b6000602082019050610d906000830184610c53565b92915050565b6000604082019050610dab6000830185610c53565b8181036020830152610dbd8184610a95565b90509392505050565b6000604051905081810181811067ffffffffffffffff82111715610ded57610dec61105c565b5b8060405250919050565b600067ffffffffffffffff821115610e1257610e1161105c565b5b601f19601f8301169050602081019050919050565b6000819050602082019050919050565b600081519050919050565b600081519050919050565b6000602082019050919050565b600082825260208201905092915050565b600081905092915050565b600082825260208201905092915050565b600082825260208201905092915050565b6000610ea382610f20565b9150610eae83610f20565b9250827fffffffffffffffffffffffffffffffffffffffffffffffffffffffffffffffff03821115610ee357610ee2610fcf565b5b828201905092915050565b6000610ef982610f00565b9050919050565b600073ffffffffffffffffffffffffffffffffffffffff82169050919050565b6000819050919050565b82818337600083830152505050565b60005b83811015610f57578082015181840152602081019050610f3c565b83811115610f66576000848401525b50505050565b60006002820490506001821680610f8457607f821691505b60208210811415610f9857610f9761102d565b5b50919050565b6000610fa982610f20565b9150610fb483610f20565b925082610fc457610fc3610ffe565b5b828206905092915050565b7f4e487b7100000000000000000000000000000000000000000000000000000000600052601160045260246000fd5b7f4e487b7100000000000000000000000000000000000000000000000000000000600052601260045260246000fd5b7f4e487b7100000000000000000000000000000000000000000000000000000000600052602260045260246000fd5b7f4e487b7100000000000000000000000000000000000000000000000000000000600052604160045260246000fd5b6000601f19601f8301169050919050565b6110a581610eee565b81146110b057600080fd5b5056fea2646970667358221220dd8ff7a0e6999d14a8e79e67c0c7b81d25e93067d17e82858a6277d4cc33dca664736f6c63430008000033",
  "linkReferences": {},
  "deployedLinkReferences": {}
}